:0400000007EF00F016
:100008005682B7ED13F023EF18F0B50E0001C96F53
:10001800000ECA6F1FEF05F0250EE019D8B40AD0FC
:10002800B1C0D9FFB2C0DAFFE0C0DFFFB14BB22BDD
:100038001FEF05F0000EDA6F000ED96F000ECE6FBD
:10004800000ECD6FB3C0F6FFB4C0F7FF0800F5503F
:100058001CEC1AF0D8A034D0000E0001DA6F000EA4
:10006800D96FD9C037F0DAC038F0000E3A6E0A0EF0
:10007800396E7CEC19F037C0D9F038C0DAF0D00E00
:100088000001BE6FFF0EBF6FB3C0F6FFB4C0F7FF2D
:100098000800F550C06FC16BBE51C027BF51C123C6
:1000A800C051D927C151DA23B34BB42BB3C0F6FFE3
:1000B800B4C0F7FF0800F5501CEC1AF0D8B0D1D73F
:1000C800B3C0F6FFB4C0F7FF0800F5502E0AD8A455
:1000D80030D00001CE8DB34BB42B000EDF6F000E75
:1000E800DE6F1CD0DEC037F0DFC038F0000E3A6E8D
:1000F8000A0E396E7CEC19F0B3C0F6FFB4C0F7FFF6
:100108000800F5503726000E3822D00E372400019B
:10011800DE6FFF0E3820DF6FB34BB42BB3C0F6FF92
:10012800B4C0F7FF0800F5501CEC1AF0D8A05AD05C
:10013800D9D7000E0001DF6F000EDE6FCE8952D0D6
:10014800CE8568D0DE51DF11D8B40AD0CB51DE5D40
:10015800CC51DF59D8B004D0DEC0CBF0DFC0CCF032
:10016800D951CB5DDA51CC59D8B005D0CB51D95F34
:10017800CC51DA5B0DD0000EDA6F000ED96F08D0C3
:10018800B1C0D9FFB2C0DAFF200EDF6EB14BB22B7F
:10019800D907D8A0DA07D929F3E1DA29D8B40FD0DA
:1001A800EFD7C7C0D9FFC8C0DAFFB1C0E1FFB2C0FE
:1001B800E2FFDFCFE7FFC74BC82BB14BB22BCB0712
:1001C800D8A0CC07CB29EDE1CC29D8B41FEF05F096
:1001D800E8D7E00EC76F000EC86F000ECC6F010E97
:1001E800CB6FB0D7B3C0F6FFB4C0F7FF0001B34B75
:1001F800B42B0800F5CFE0F0E051000AD8B42CEF9A
:1002080005F0640AD8B406D0020AD8B499D70F0A00
:10021800D8A4DFD7070ECE15D8B4FCD2CEA904D007
:10022800000EDF6F060EDE6FC9C0D9FFCAC0DAFF45
:10023800DECFDBF0DECFDCF0DDCFDDF0030EC9274B
:10024800000ECA23DDAF11D0DBC080F0DCC081F026
:10025800DDC082F08FEC19F080C0DBF081C0DCF0EB
:1002680082C0DDF0030E0001CD13000ED86F000E22
:10027800D76FDB51DC11DD11D8B487D0820EBE6F89
:10028800FF0EBF6FDBC0C0F0DCC0C1F0DDC0C2F044
:10029800DEC0C3F0100E05D0D890C333C233C133CB
:1002A800C033E82EF9D7C051BE25D76F000EBF2145
:1002B800D86FD707D8A0D807D7C037F0D8C038F03C
:1002C800000E3A6E030E396E7CEC19F037C0D7F089
:1002D80038C0D8F0D7C02FF0D8C030F0000E326E3A
:1002E8000A0E316E07EC16F02FC0D7F030C0D8F0E8
:1002F8000001D8AF03D0D707D8A0D807D751000836
:1003080097EC08F08CC0CFF08DC0D0F08EC0D1F043
:10031800CFC080F0D0C081F0D1C082F0DBC083F0C4
:10032800DCC084F0DDC085F0C8EC12F080C0CFF0EE
:1003380081C0D0F082C0D1F0CFC0A2F0D0C0A3F06D
:10034800D1C0A4F0000E0001A56F800EA66F3F0E6D
:10035800A76FBEEC15F00001D8B004D0D707D8A01D
:10036800D80713D0CFC0A2F0D0C0A3F0D1C0A4F05A
:10037800000EA56F200EA66F410EA76FBEEC15F0FC
:100388000001D8A002D0D74BD82BDFBF06D0DF5151
:100398001BE10D0EDE5DD8B017D0DBC096F0DCC0D7
:1003A80097F0DDC098F0DE51A7EC0AF08CC099F008
:1003B8008DC09AF08EC09BF072EC0FF096C0DBF007
:1003C80097C0DCF098C0DDF00001D8BF06D0D85146
:1003D8001FE10A0ED75DD8B01BD0DB51DC11DD114F
:1003E800D8B454D0DBC0A2F0DCC0A3F0DDC0A4F0C8
:1003F8004CEC12F00001A251A311A411A511D8B41C
:10040800D8BF44D0D85104E1020ED75DD8A03ED061
:10041800CFC0A2F0D0C0A3F0D1C0A4F0700EA56FD9
:10042800890EA66F400EA76FBEEC15F00001D8B07C
:1004380002D0F70E01D0F80ED727FF0ED823D751D8
:1004480097EC08F08CC0CFF08DC0D0F08EC0D1F002
:10045800DBC029F0DCC02AF0DDC02BF0CFC02CF0C7
:10046800D0C02DF0D1C02EF01FEC11F029C0D3F070
:100478002AC0D4F02BC0D5F02CC0D6F0000E000155
:10048800DB6F000EDC6F000EDD6F33D0DBC0A2F037
:10049800DCC0A3F0DDC0A4F04CEC12F0A2C0D3F095
:1004A800A3C0D4F0A4C0D5F0A5C0D6F0DBC0A2F09C
:1004B800DCC0A3F0DDC0A4F0D3C031F0D4C032F06A
:1004C800D5C033F0D6C034F0CAEC17F031C0A5F06F
:1004D80032C0A6F033C0A7F0BCEC18F0A2C0DBF025
:1004E800A3C0DCF0A4C0DDF0000E0001D86F000E40
:1004F800D76F010EE06F0A0EE019D8B418D0E0519A
:10050800040D7B0EF324F66EFE0EF420F76E090040
:10051800F550D35D0900F550D4590900F550D55967
:100528000900F550D659D8A002D0E02BE4D7E0C096
:10053800BEF0BF6BBEBFBF07DE51BE27DF51BF2372
:10054800D751BE27D851BF23BE51D95FBF51DA5BFF
:10055800DE51DF11D8B403D0D907D8A0DA07030ECB
:10056800CD15BE6F000ECE15BF6FBE51BF11D8B4EA
:100578000CD008D0B1C0D9FFB2C0DAFF200EDF6EB0
:10058800B14BB22BD907D8A0DA07DABF05D0DA51B8
:10059800F1E1D905D8B0EED7030ECD15BE6F000E28
:1005A800CE15BF6FBE51BF11D8B450D0B1C0D9FF5E
:1005B800B2C0DAFF2D0E47D0D3C029F0D4C02AF03C
:1005C800D5C02BF0D6C02CF0E051040D7B0EF324DF
:1005D800F66EFE0EF420F76E0900F5CF2DF0090037
:1005E800F5CF2EF00900F5CF2FF00A00F5CF30F047
:1005F80049EC16F029C0CFF02AC0D0F02BC0D1F0BA
:100608002CC0D2F0CFC036F0D0C037F0D1C038F00F
:10061800D2C039F00A0E3A6E000E3B6E000E3C6EE8
:10062800000E3D6E66EC17F036C0CFF037C0D0F044
:1006380038C0D1F039C0D2F00001CF51300FB1C06D
:10064800D9FFB2C0DAFFDF6EB14BB22BE007E02969
:10065800D8B40CD0B1D7B1C0D9FFB2C0DAFF300ED0
:10066800DF6EB14BB22BD707D8A0D807D8BF05D0BB
:10067800D851F1E1D705D8B0EED7DFBF09D0DF51A7
:1006880004E1090EDE5DD8A003D0080EE06F02D0A9
:10069800DEC0E0F0E051DE5F000EE0BFFF0EDF5B82
:1006A800E051D8B408D0B1C0D9FFB2C0DAFF2E0EDD
:1006B800DF6EB14BB22BE05197EC08F08CC0C4F060
:1006C8008DC0C5F08EC0C6F0DBC083F0DCC084F0FE
:1006D800DDC085F0C4C080F0C5C081F0C6C082F01E
:1006E800C8EC12F080C0A2F081C0A3F082C0A4F0D0
:1006F8004CEC12F0A2C0D3F0A3C0D4F0A4C0D5F043
:10070800A5C0D6F071D0D3C029F0D4C02AF0D5C086
:100718002BF0D6C02CF00001E051040D7B0EF32421
:10072800F66EFE0EF420F76E0900F5CF2DF00900E5
:10073800F5CF2EF00900F5CF2FF00A00F5CF30F0F5
:1007480049EC16F029C0CFF02AC0D0F02BC0D1F068
:100758002CC0D2F0CFC036F0D0C037F0D1C038F0BE
:10076800D2C039F00A0E3A6E000E3B6E000E3C6E97
:10077800000E3D6E66EC17F036C0CFF037C0D0F0F3
:1007880038C0D1F039C0D2F00001CF51300FB1C01C
:10079800D9FFB2C0DAFFDF6EB14BB22BD3C036F04F
:1007A800D4C037F0D5C038F0D6C039F0E051040DC8
:1007B8007B0EF324F66EFE0EF420F76E0900F5CFDB
:1007C8003AF00900F5CF3BF00900F5CF3CF00A00FC
:1007D800F5CF3DF066EC17F036C0D3F037C0D4F053
:1007E80038C0D5F039C0D6F00001E007E029D8B408
:1007F8000CD089D7B1C0D9FFB2C0DAFF300EDF6E96
:10080800B14BB22BDE07D8A0DF07DE51DF11D8B419
:1008180012D1F0D7C9C0D9FFCAC0DAFFDECFD3F0F2
:10082800DDCFD4F0000ED4BFFF0ED56FD66F020E09
:10083800C927000ECA23D6AF0AD0030ECD13D61F80
:10084800D51FD41FD36D000ED423D523D623DE5154
:10085800DF11D8A408D0D351D411D511D611D8A4FA
:1008680002D0DE4BDF2B010EE06F0A0EE019D8B480
:1008780018D0E051040D7B0EF324F66EFE0EF42022
:10088800F76E0900F550D35D0900F550D4590900F9
:10089800F550D5590900F550D659D8A002D0E02B0B
:1008A800E4D7800EE0BF7F0EBE6FDE51E05DDF5102
:1008B800800ABE59D8B003D0DEC0E0F010D0DF51B6
:1008C800800ABE6FE051DE5D800EE0BF7F0EBE592C
:1008D800D8B005D0E051DE6FDF6BDEBFDF07D9513E
:1008E800DA11D8B40DD0030ECD15BE6F000ECE159B
:1008F800BF6FBE51BF11D8B403D0D907D8A0DA074B
:10090800CEAD13D0D951DE5DDF51800ABE6FDA510A
:10091800800ABE59D8B005D0DE51D95FDF51DA5B05
:1009280004D0000EDA6F000ED96F800EE0BF7F0E84
:10093800BE6FD951E05DDA51800ABE59D8B007D0F0
:10094800E051D95F000EE0BFFF0EDA5B04D0000E65
:10095800DA6F000ED96FD951DA11D8B40FD0B1C0FF
:10096800D9FFB2C0DAFF200EDF6EB14BB22BD90728
:10097800D8A0DA07D951DA11D8A4F1D7030ECD15CA
:10098800BE6F000ECE15BF6FBE51BF11D8B44BD08D
:10099800B1C0D9FFB2C0DAFF2D0EDF6E42D0DEC083
:1009A800BEF0DFC0BFF0D890BE37BF37D890BE3793
:1009B800BF377B0EBE25F66EFE0EBF21F76E09000F
:1009C800F5CF2DF00900F5CF2EF00900F5CF2FF067
:1009D8000A00F5CF30F0D3C029F0D4C02AF0D5C032
:1009E8002BF0D6C02CF049EC16F029C036F02AC0FE
:1009F80037F02BC038F02CC039F00A0E3A6E000ED2
:100A08003B6E000E3C6E000E3D6E66EC17F03650E5
:100A1800300F0001E06FB1C0D9FFB2C0DAFFE0C00B
:100A2800DFFFB14BB22BDE07D8A0DF07DE29B7E125
:100A3800DF29D8A4B4D7B3C0F6FFB4C0F7FFB34BCF
:100A4800B42B0800F5CFE0F0E051D8A410EF00F087
:100A5800B1C0D9FFB2C0DAFF000EDF6E1200010E7E
:100A6800FEEC18F029C03DF02AC03EF01BEC19F04E
:100A78003DC0F6F03EC0F7F03FC0F8F0000EFEECC7
:100A880018F029C03DF02AC03EF01BEC19F03DC01B
:100A9800FCF03EC0FDF03FC0FEF0020E336E010ECA
:100AA800DDEC18F0C00E00018F6F7F0E906F440EC2
:100AB800916F000E836FFA0E846F430E856FFCC032
:100AC80080F0FDC081F0FEC082F0C8EC12F080C05A
:100AD8008CF081C08DF082C08EF043EC13F08CC096
:100AE80028F18DC029F18EC02AF1000E0001B16FE6
:100AF800010EB26F710EB36FFF0EB46F28C18CF088
:100B080029C18DF02AC18EF0000E8F6FA00E906F54
:100B1800400E916F43EC13F08CC0B5F08DC0B6F069
:100B28008EC0B7F009EC00F0000E376E010E386E7B
:100B3800D9EC19F0040E336E010EDDEC18F0000E3E
:100B48000001B16F010EB26FB90EB36FFF0EB46F33
:100B580048C0B5F049C0B6F009EC00F0000E376E99
:100B6800010E386ED9EC19F0030E336E010EDDEC70
:100B780018F0C00E00018F6F7F0E906F440E916FBA
:100B8800000E836FFA0E846F430E856FF6C080F0F7
:100B9800F7C081F0F8C082F0C8EC12F080C08CF089
:100BA80081C08DF082C08EF043EC13F08CC028F128
:100BB8008DC029F18EC02AF1000E0001B16F010E1F
:100BC800B26F4D0EB36FFF0EB46F28C18CF029C100
:100BD8008DF02AC18EF0000E8F6FA00E906F400E20
:100BE800916F43EC13F08CC0B5F08DC0B6F08EC099
:100BF800B7F009EC00F0000E376E010E386ED9EC34
:100C080019F03EEC1AF0C00E00018F6F7F0E906F46
:100C1800440E916F000E836FA00E846F400E856F97
:100C2800FCC080F0FDC081F0FEC082F0C8EC12F07C
:100C380080C08CF081C08DF082C08EF043EC13F040
:100C48008CC037F18DC038F18EC039F1000E00012B
:100C5800836FC80E846F420E856F37C180F038C12C
:100C680081F039C182F0C8EC12F080C08CF081C0EC
:100C78008DF082C08EF0000E00018F6FA00E906F75
:100C8800400E916F43EC13F08CC031F18DC032F1FE
:100C98008EC033F1C00E00018F6F7F0E906F440E2F
:100CA800916F000E836FA00E846F400E856FF9C0A0
:100CB80080F0FAC081F0FBC082F0C8EC12F080C06E
:100CC8008CF081C08DF082C08EF043EC13F08CC0A4
:100CD80037F18DC038F18EC039F137C180F038C195
:100CE80081F039C182F0000E0001836FC80E846F55
:100CF800420E856FC8EC12F080C034F181C035F126
:100D080082C036F1A092A09031C180F032C181F04A
:100D180033C182F08FEC19F080C096F081C097F053
:100D280082C098F034C199F035C19AF036C19BF071
:100D380072EC0FF096C020F197C021F198C022F113
:100D4800000E0001A26F000EA36F000EA46F20C159
:100D5800A5F021C1A6F022C1A7F0BEEC15F0000154
:100D6800D8B051D020C180F021C181F022C182F0D9
:100D7800000E836F200E846F410E856FC8EC12F051
:100D880080C02BF181C02CF182C02DF12BC1A2F0C3
:100D98002CC1A3F02DC1A4F0000E0001A56FC80E50
:100DA800A66F410EA76FBEEC15F00001D8B007D0B2
:100DB800000E01012B6FC80E2C6F410E2D6F000E17
:100DC8000001A26FC80EA36F420EA46F2BC1A5F03D
:100DD8002CC1A6F02DC1A7F0BEEC15F00001D8B0CB
:100DE80007D0000E01012B6FC80E2C6F420E2D6F1D
:100DF8002BC1B1F02CC1B2F02DC1B3F06EEC15F0DF
:100E0800829AA092A09034C1A2F035C1A3F036C155
:100E1800A4F031C199F032C19AF033C19BF048C0B7
:100E28003DF049C03EF01BEC19F03DC080F03EC0DB
:100E380081F03FC082F08FEC19F080C096F081C03D
:100E480097F082C098F072EC0FF096C0A5F097C0AA
:100E5800A6F098C0A7F0BEEC15F00001D8B013D0EA
:100E6800000EB16F000EB26F000EB36F6EEC15F08E
:100E7800A082A080800E0001F56F000EF46FF5517E
:100E8800BC6EF4C0BBFFC00E8F6F7F0E906F440E18
:100E9800916F000E836FA00E846F400E856FFCC0AB
:100EA80080F0FDC081F0FEC082F0C8EC12F080C076
:100EB8008CF081C08DF082C08EF043EC13F08CC0B2
:100EC80037F18DC038F18EC039F1000E0001836F03
:100ED800C80E846F420E856F37C180F038C181F02B
:100EE80039C182F0C8EC12F080C08CF081C08DF05E
:100EF80082C08EF0000E00018F6FA00E906F400E22
:100F0800916F43EC13F08CC031F18DC032F18EC07B
:100F180033F1C00E00018F6F7F0E906F440E916FFA
:100F2800000E836FA00E846F400E856FF9C080F0AD
:100F3800FAC081F0FBC082F0C8EC12F080C08CF0DF
:100F480081C08DF082C08EF043EC13F08CC037F175
:100F58008DC038F18EC039F137C180F038C181F0C9
:100F680039C182F0000E0001836FC80E846F420EF3
:100F7800856FC8EC12F080C034F181C035F182C0B1
:100F880036F18294000EBD6EA082A08034C180F03C
:100F980035C181F036C182F08FEC19F080C096F02F
:100FA80081C097F082C098F031C199F032C19AF0AF
:100FB80033C19BF072EC0FF096C023F197C024F177
:100FC80098C025F1000E0001A26F000EA36F000E5D
:100FD800A46F23C1A5F024C1A6F025C1A7F0BEECDB
:100FE80015F00001D8B076D023C180F024C181F07B
:100FF80025C182F0000E836F200E846F410E856F2D
:10100800C8EC12F080C02EF181C02FF182C030F1FF
:101018002EC1A2F02FC1A3F030C1A4F0000E000130
:10102800A56F480EA66F420EA76FBEEC15F0000123
:10103800D8B007D0000E01012E6F480E2F6F420E58
:10104800306F000E0001A26FC80EA36F420EA46F8E
:101058002EC1A5F02FC1A6F030C1A7F0BEEC15F047
:101068000001D8B007D0000E01012E6FC80E2F6FF7
:10107800420E306FA082A080000E00018F6FC80E54
:10108800906F420E916FFF0E836F7F0E846F470E35
:10109800856F2EC180F02FC181F030C182F0C8EC7D
:1010A80012F080C08CF081C08DF082C08EF043ECCD
:1010B80013F08CC0A2F08DC0A3F08EC0A4F04CEC4D
:1010C80012F0A2C026F1A3C027F101012751BC6E7E
:1010D80026C1BBFF31C199F032C19AF033C19BF0F0
:1010E80048C03DF049C03EF01BEC19F03DC096F0F9
:1010F8003EC097F03FC098F072EC0FF096C0A2F097
:1011080097C0A3F098C0A4F034C1A5F035C1A6F0EB
:1011180036C1A7F0BEEC15F00001D8B01200829AD3
:10112800A092A09012000001926F000192AF06D128
:10113800926D9251800A120FD8A093D0000E3A6E89
:10114800030E396E000E326E0A0E316E000E2C6ED2
:10115800640E2B6E9251296E2A6A29BE2A068AECE1
:1011680016F029C02FF02AC030F007EC16F0090E4F
:101178002F24376E000E3020386E7CEC19F0CA0E22
:101188003724F66EFE0E3820F76E0900F5CF83F08F
:101198000900F5CF84F00A00F5CF85F0000E326E15
:1011A800640E316E000192512F6E306A2FBE3006E8
:1011B80007EC16F0120E2F24376E000E3020386E12
:1011C800000E3A6E030E396E7CEC19F0CA0E372405
:1011D800F66EFE0E3820F76E0900F5CF80F0090094
:1011E800F5CF81F00A00F5CF82F0C8EC12F080C08C
:1011F8008FF081C090F082C091F08FC080F090C0D5
:1012080081F091C082F0000E3A6E030E396E000E26
:101218002C6E0A0E2B6E00019251296E2A6A29BE85
:101228002A068AEC16F029C037F02AC038F07CEC80
:1012380019F0CA0E3724F66EFE0E3820F76E090034
:10124800F5CF83F00900F5CF84F00A00F5CF85F0DB
:10125800C8EC12F080C08CF081C08DF082C08EF096
:10126800120000019251800A750FD8A054D0000EC8
:10127800326E0A0E316E92512F6E306A2FBE3006D2
:1012880007EC16F0090E2F24376E000E3020386E4A
:10129800000E3A6E030E396E7CEC19F0CA0E372434
:1012A800F66EFE0E3820F76E0900F5CF80F00900C3
:1012B800F5CF81F00A00F5CF82F0000E3A6E030EEA
:1012C800396E000E2C6E0A0E2B6E00019251296E9B
:1012D8002A6A29BE2A068AEC16F029C037F02AC0E5
:1012E80038F07CEC19F0CA0E3724F66EFE0E382062
:1012F800F76E0900F5CF83F00900F5CF84F00A00F6
:10130800F5CF85F0C8EC12F080C08CF081C08DF06C
:1013180082C08EF0120000019251030DCA0EF32410
:10132800F66EFE0EF420F76E0900F5CF8CF009007A
:10133800F5CF8DF00A00F5CF8EF012009251800A99
:10134800120FD8A093D0000E3A6E030E396E000E1D
:10135800326E0A0E316E000E2C6E640E2B6E925198
:10136800296E2A6A29BE2A068AEC16F029C02FF0AF
:101378002AC030F007EC16F0090E2F24376E000E45
:101388003020386E7CEC19F0A30E3724F66EFE0E72
:101398003820F76E0900F5CF83F00900F5CF84F007
:1013A8000A00F5CF85F0000E326E640E316E000132
:1013B80092512F6E306A2FBE300607EC16F0120ECF
:1013C8002F24376E000E3020386E000E3A6E030E52
:1013D800396E7CEC19F0A30E3724F66EFE0E382019
:1013E800F76E0900F5CF80F00900F5CF81F00A000B
:1013F800F5CF82F0C8EC12F080C08FF081C090F079
:1014080082C091F08FC080F090C081F091C082F0CE
:10141800000E3A6E030E396E000E2C6E0A0E2B6EFD
:1014280000019251296E2A6A29BE2A068AEC16F012
:1014380029C037F02AC038F07CEC19F0A30E372405
:10144800F66EFE0E3820F76E0900F5CF83F009001E
:10145800F5CF84F00A00F5CF85F0C8EC12F080C013
:101468008CF081C08DF082C08EF012000001925184
:10147800800A750FD8A054D0000E326E0A0E316E55
:1014880092512F6E306A2FBE300607EC16F0090E07
:101498002F24376E000E3020386E000E3A6E030E81
:1014A800396E7CEC19F0A30E3724F66EFE0E382048
:1014B800F76E0900F5CF80F00900F5CF81F00A003A
:1014C800F5CF82F0000E3A6E030E396E000E2C6EC8
:1014D8000A0E2B6E00019251296E2A6A29BE2A062D
:1014E8008AEC16F029C037F02AC038F07CEC19F0E5
:1014F800A30E3724F66EFE0E3820F76E0900F5CFDE
:1015080083F00900F5CF84F00A00F5CF85F0C8EC28
:1015180012F080C08CF081C08DF082C08EF0120075
:1015280000019251030DA30EF324F66EFE0EF42073
:10153800F76E0900F5CF8CF00900F5CF8DF00A00A1
:10154800F5CF8EF012000001956F6D0E00019565C4
:10155800A0D0000E3A6E030E396E000E326E0A0EDF
:10156800316E000E2C6E640E2B6E95C029F02A6A1F
:101578008AEC16F029C02FF02AC030F007EC16F0DC
:10158800090E2F24376E000E3020386E7CEC19F0CF
:10159800CA0E3724F66EFE0E3820F76E0900F5CF16
:1015A80083F00900F5CF84F00A00F5CF85F0000E2E
:1015B800326E640E316E95C02FF0306A07EC16F06B
:1015C800120E2F24376E000E3020386E000E3A6E41
:1015D800030E396E7CEC19F0CA0E3724F66EFE0E37
:1015E8003820F76E0900F5CF80F00900F5CF81F0BB
:1015F8000A00F5CF82F0C8EC12F080C092F081C0EA
:1016080093F082C094F0000E3A6E030E396E000E0D
:101618002C6E0A0E2B6E95C029F02A6A8AEC16F0F9
:1016280029C037F02AC038F07CEC19F0CA0E3724EC
:10163800F66EFE0E3820F76E0900F5CF83F009002C
:10164800F5CF84F00A00F5CF85F092C080F093C002
:1016580081F094C082F0C8EC12F080C08FF081C095
:1016680090F082C091F08FC080F090C081F091C05E
:1016780082F0000E0001836F000E846F3F0E856FAD
:10168800C8EC12F080C08CF081C08DF082C08EF062
:1016980012000A0E0001956564D0000E3A6E030E22
:1016A800396E000E2C6E0A0E2B6E95C029F02A6A30
:1016B8008AEC16F029C037F02AC038F07CEC19F013
:1016C800CA0E3724F66EFE0E3820F76E0900F5CFE5
:1016D80083F00900F5CF84F00A00F5CF85F0000EFD
:1016E800326E0A0E316E95C02FF0306A07EC16F094
:1016F800090E2F24376E000E3020386E000E3A6E19
:10170800030E396E7CEC19F0CA0E3724F66EFE0E05
:101718003820F76E0900F5CF80F00900F5CF81F089
:101728000A00F5CF82F0C8EC12F080C092F081C0B8
:1017380093F082C094F092C080F093C081F094C07E
:1017480082F0000E0001836F000E846F3F0E856FDC
:10175800C8EC12F080C08CF081C08DF082C08EF091
:10176800120000019551030DCA0EF324F66EFE0E09
:10177800F420F76E0900F5CF80F00900F5CF81F06D
:101788000A00F5CF82F0000E836F000E846F3F0EC3
:10179800856FC8EC12F080C08CF081C08DF082C0DB
:1017A8008EF01200B5EC19F02BEC1AF0000E556E05
:1017B800010EFEEC18F029C03DF02AC03EF01BECEB
:1017C80019F03DC0F6F03EC0F7F03FC0F8F0C00E8B
:1017D80000018F6F7F0E906F440E916F000E836F24
:1017E800FA0E846F430E856FF6C080F0F7C081F063
:1017F800F8C082F0C8EC12F080C08CF081C08DF087
:1018080082C08EF043EC13F08CC0E6F08DC0E7F098
:101818008EC0E8F0E6C08CF0E7C08DF0E8C08EF02E
:10182800000E00018F6FA00E906F400E916F43EC79
:1018380013F08CC0E9F08DC0EAF08EC0EBF0010E19
:10184800FAEC16F09BC0ECF09CC0EDF09DC0EEF0F9
:10185800020EFAEC16F09BC052F09CC053F09DC0EB
:1018680054F0000EFAEC16F09BC0EFF09CC0F0F0BC
:101878009DC0F1F0F2B24CEC18F09EAA05D0000E13
:101888000001F36F010EF26F52C080F053C081F077
:1018980054C082F0000E0001836FC80E846F420EA0
:1018A800856FC8EC12F080C04FF081C050F082C044
:1018B80051F0000E0001836FC80E846F420E856FD1
:1018C800EFC080F0F0C081F0F1C082F0C8EC12F0F7
:1018D80080C08CF081C08DF082C08EF0000E0001B7
:1018E8008F6FA00E906F400E916F43EC13F08CC079
:1018F8004CF08DC04DF08EC04EF0000E0001A26F6E
:10190800700EA36F420EA46FE9C0A5F0EAC0A6F05E
:10191800EBC0A7F0BEEC15F00001D8A011D0E9C0CB
:10192800A2F0EAC0A3F0EBC0A4F0000EA56F200E51
:10193800A66F420EA76FBEEC15F00001D8B002D01A
:10194800030E556E81B602D0000E556E04001EECD3
:1019580015F05550D8A403D097EC0EF012D05504CA
:10196800D8A403D0D2EC0CF00CD0020E5518D8A491
:1019780003D0B7EC0DF005D0030E5518D8B433ECEE
:1019880005F00001F251F311D8B412D719EC14F094
:10199800000E0001F36F000EF26F0AD7010EFEEC85
:1019A80018F029C03DF02AC03EF01BEC19F03DC0EC
:1019B800F6F03EC0F7F03FC0F8F0000EFEEC18F06D
:1019C80029C03DF02AC03EF01BEC19F03DC0FCF0E8
:1019D8003EC0FDF03FC0FEF0020E336E010EDDEC9E
:1019E80018F0C00E00018F6F7F0E906F440E916F3C
:1019F800000E836FFA0E846F430E856FFCC080F073
:101A0800FDC081F0FEC082F0C8EC12F080C08CF0FE
:101A180081C08DF082C08EF043EC13F08CC0E1F0F1
:101A28008DC0E2F08EC0E3F0000E0001B16F010E30
:101A3800B26F830EB36FFF0EB46FE1C08CF0E2C0DB
:101A48008DF0E3C08EF0000E8F6FA00E906F400EE9
:101A5800916F43EC13F08CC0B5F08DC0B6F08EC01A
:101A6800B7F009EC00F0000E376E010E386ED9ECB5
:101A780019F0040E336E010EDDEC18F0000E0001B3
:101A8800B16F010EB26FDC0EB36FFF0EB46F09ECCD
:101A980000F0000E376E010E386ED9EC19F0030E07
:101AA800336E010EDDEC18F0C00E00018F6F7F0E53
:101AB800906F440E916F000E836FFA0E846F430E81
:101AC800856FF6C080F0F7C081F0F8C082F0C8ECEE
:101AD80012F080C08CF081C08DF082C08EF043EC93
:101AE80013F08CC0E1F08DC0E2F08EC0E3F0000E80
:101AF8000001B16F010EB26F0D0EB36FFF0EB46F20
:101B0800E1C08CF0E2C08DF0E3C08EF0000E8F6F64
:101B1800A00E906F400E916F43EC13F08CC0B5F09F
:101B28008DC0B6F08EC0B7F045C0B8F046C0B9F069
:101B380047C0BAF009EC00F0000E376E010E386E9F
:101B4800D9EC19F03EEC1AF0010EFEEC18F029C0A1
:101B5800F4F02AC0F5F0F4C029F0F5C02AF04EECF4
:101B680019F0829A1200010EFEEC18F029C03DF01F
:101B78002AC03EF01BEC19F03DC0F6F03EC0F7F06D
:101B88003FC0F8F0000EFEEC18F029C03DF02AC066
:101B98003EF01BEC19F03DC0FCF03EC0FDF03FC02C
:101BA800FEF0020E336E010EDDEC18F0C00E0001DF
:101BB8008F6F7F0E906F440E916F000E836FFA0E39
:101BC800846F430E856FFCC080F0FDC081F0FEC0BD
:101BD80082F0C8EC12F080C08CF081C08DF082C019
:101BE8008EF043EC13F08CC0E3F08DC0E4F08EC0AF
:101BF800E5F0000E0001B16F010EB26F950EB36FE4
:101C0800FF0EB46FE3C08CF0E4C08DF0E5C08EF039
:101C1800000E8F6FA00E906F400E916F43EC13F083
:101C28008CC0B5F08DC0B6F08EC0B7F009EC00F0EE
:101C3800000E376E010E386ED9EC19F0040E336EB3
:101C4800010EDDEC18F0000E0001B16F010EB26F4D
:101C5800ED0EB36FFF0EB46F09EC00F0000E376E97
:101C6800010E386ED9EC19F0030E336E010EDDEC5F
:101C780018F0C00E00018F6F7F0E906F440E916FA9
:101C8800000E836FFA0E846F430E856FF6C080F0E6
:101C9800F7C081F0F8C082F0C8EC12F080C08CF078
:101CA80081C08DF082C08EF043EC13F08CC0E3F05D
:101CB8008DC0E4F08EC0E5F0000E0001B16F010E9A
:101CC800B26F230EB36FFF0EB46FE3C08CF0E4C0A5
:101CD8008DF0E5C08EF0000E8F6FA00E906F400E55
:101CE800916F43EC13F08CC0B5F08DC0B6F08EC088
:101CF800B7F045C0B8F046C0B9F047C0BAF009EC33
:101D080000F0000E376E010E386ED9EC19F0A08283
:101D1800A080A082A0800001E169E269E251BC6E66
:101D2800E1C0BBFF1200010EFEEC18F029C03DF027
:101D38002AC03EF01BEC19F03DC0F6F03EC0F7F0AB
:101D48003FC0F8F0000EFEEC18F029C03DF02AC0A4
:101D58003EF01BEC19F03DC0FCF03EC0FDF03FC06A
:101D6800FEF0020E336E010EDDEC18F0C00E00011D
:101D78008F6F7F0E906F440E916F000E836FFA0E77
:101D8800846F430E856FFCC080F0FDC081F0FEC0FB
:101D980082F0C8EC12F080C08CF081C08DF082C057
:101DA8008EF043EC13F08CC0E1F08DC0E2F08EC0F1
:101DB800E3F0000E0001B16F010EB26FA70EB36F12
:101DC800FF0EB46FE1C08CF0E2C08DF0E3C08EF07E
:101DD800000E8F6FA00E906F400E916F43EC13F0C2
:101DE8008CC0B5F08DC0B6F08EC0B7F009EC00F02D
:101DF800000E376E010E386ED9EC19F0040E336EF2
:101E0800010EDDEC18F0000E0001B16F010EB26F8B
:101E1800CB0EB36FFF0EB46F09EC00F0000E376EF7
:101E2800010E386ED9EC19F0030E336E010EDDEC9D
:101E380018F0C00E00018F6F7F0E906F440E916FE7
:101E4800000E836FFA0E846F430E856FF6C080F024
:101E5800F7C081F0F8C082F0C8EC12F080C08CF0B6
:101E680081C08DF082C08EF043EC13F08CC0E1F09D
:101E78008DC0E2F08EC0E3F0000E0001B16F010EDC
:101E8800B26F4D0EB36FFF0EB46FE1C08CF0E2C0BD
:101E98008DF0E3C08EF0000E8F6FA00E906F400E95
:101EA800916F43EC13F08CC0B5F08DC0B6F08EC0C6
:101EB800B7F009EC00F0000E376E010E386ED9EC61
:101EC80019F0000E376E010E386ED9EC19F08294B5
:101ED800829A000E9D6E9DCFA0FF120098C09CF0C4
:101EE80000019D6B9E6B97359C3701E39D819C514A
:101EF800A16F9BC09CF09D6B9E6B9A359C3701E34C
:101F08009D819C51A06FA151D8B40BD0A051A15D67
:101F1800D8B00ED0A1510008A0259C6F180E9C6562
:101F280007D099C096F09AC097F09BC098F012001D
:101F3800A051D8B40BD0A151A05DD8B00ED0A051FB
:101F48000008A1259C6F180E9C6507D096C096F0D6
:101F580097C097F098C098F01200060E9F6F98BF30
:101F68009F8F9BBF9F8D978FFF0E9617FF0E97171A
:101F7800000E98179A8FFF0E9917FF0E9A17000EEA
:101F88009B17A051A15DD8B01BD0D89099379A372C
:101F98009B37A007A151A019D8B40DD09F079FC0A7
:101FA8009CF0070E9C17D8B406D0EFD7D89098337A
:101FB80097339633A12BA051A119D8B41FD0F6D7C7
:101FC800A151A05DD8B01AD0D890963797379837D6
:101FD800A107A151A019D8B40DD09F079FC09CF0AC
:101FE800070E9C17D8B406D0EFD7D8909B339A33F6
:101FF8009933A02BA051A119D8A4F7D79FAF0CD023
:10200800FF0E961BFF0E971BFF0E981B010E9627BF
:10201800000E9723000E98239FAD0CD0FF0E991B3E
:10202800FF0E9A1BFF0E9B1B010E9927000E9A2389
:10203800000E9B23000E9F6F9651992797519A2364
:1020480098519B239BAF0ED0FF0E991BFF0E9A1B36
:10205800FF0E9B1B010E9927000E9A23000E9B234F
:10206800010E9F6F99C029F09AC02AF09BC02BF0EF
:10207800A1C02CF09FC02DF070EC14F029C096F090
:102088002AC097F02BC098F012000BC00FF0106A0E
:10209800116A0A340F3601E310800F50146E0EC017
:1020A8000FF0106A116A0D340F3601E310800F50DB
:1020B800136E1450D8B40BD01350145CD8B00ED093
:1020C8001450000813240F6E180E0F6407D00CC0AC
:1020D80009F00DC00AF00EC00BF012001350D8B46E
:1020E8000BD01450135CD8B00ED013500008142431
:1020F8000F6E180E0F6407D009C009F00AC00AF065
:102108000BC00BF01200060E126E0BBE128E0EBE26
:10211800128C0A8EFF0E0916FF0E0A16000E0B16F9
:102128000D8EFF0E0C16FF0E0D16000E0E16135018
:10213800145CD8B01BD0D8900C360D360E3613066A
:1021480014501318D8B40DD0120612C00FF0070E91
:102158000F16D8B406D0EFD7D8900B320A3209320E
:10216800142A13501418D8B41FD0F6D71450135C7F
:10217800D8B01AD0D89009360A360B36140614503F
:102188001318D8B40DD0120612C00FF0070E0F1690
:10219800D8B406D0EFD7D8900E320D320C32132AAD
:1021A80013501418D8A4F7D712AE0CD0FF0E091A82
:1021B800FF0E0A1AFF0E0B1A010E0926000E0A223C
:1021C800000E0B2212AC0CD0FF0E0C1AFF0E0D1ACB
:1021D800FF0E0E1A010E0C26000E0D22000E0E2206
:1021E800000E126E09500C260A500D220B500E22BA
:1021F8000EAE0ED0FF0E0C1AFF0E0D1AFF0E0E1AA1
:10220800010E0C26000E0D22000E0E22010E126E7B
:102218000CC001F00DC002F00EC003F014C004F0B1
:1022280012C005F0C7EC14F001C009F002C00AF0B2
:1022380003C00BF012002BC02FF0306A316A2A3429
:102248002F3601E330802F50376E3750D8A409D08D
:10225800000E296E000E2A6E000E2B6E000E2C6EDC
:1022680012002EC02FF0306A316A2D342F3601E368
:1022780030802F50366E3650D8A409D0000E296E03
:10228800000E2A6E000E2B6E000E2C6E12002A8E87
:10229800FF0E2916FF0E2A16000E2B162D8EFF0E86
:1022A8002C16FF0E2D16000E2E16000E326E000E86
:1022B800336E000E346E000E356E7F0E375E36506C
:1022C800980F375E180E366ED8903236333634365D
:1022D80035362C50295C2D502A582E502B58D8A012
:1022E80007D02C50295E2D502A5A2E502B5A328056
:1022F800D89029362A362B36362EE6D737AE16D062
:102308003750800A970FD8B009D0000E296E000EFA
:102318002A6E000E2B6E000E2C6E1200D8903532ED
:10232800343233323232373EF9D715D0170E37648C
:102338000FD0000E296E000E2A6E000E2B6E000EB6
:102348002C6E1200D890323633363436353637068E
:102358003750D8A4F7D732C029F033C02AF034C098
:102368002BF035C02CF012002B342C34346E345042
:10237800D8A409D0000E296E000E2A6E000E2B6E0E
:10238800000E2C6E12002E342F34336E3350D8A426
:1023980009D0000E296E000E2A6E000E2B6E000E5C
:1023A8002C6E12002B8EFF0E2916FF0E2A16FF0E1A
:1023B8002B16000E2C162E8EFF0E2C16FF0E2D1629
:1023C800FF0E2E16000E2F16000E2F6E000E306E0A
:1023D800000E316E000E326E7F0E345E3350A00F49
:1023E800345E200E336ED8902F3630363136323682
:1023F8002C50295C2D502A582E502B582F502C58D1
:10240800D8A009D02C50295E2D502A5A2E502B5A6C
:102418002F502C5A2F80D89029362A362B362C3616
:10242800332EE1D734AE16D03450800A9F0FD8B07F
:1024380009D0000E296E000E2A6E000E2B6E000EBB
:102448002C6E1200D8903232313230322F32343E74
:10245800F9D715D01F0E34640FD0000E296E000E68
:102468002A6E000E2B6E000E2C6E1200D8902F369E
:1024780030363136323634063450D8A4F7D72FC028
:1024880029F030C02AF031C02BF032C02CF01200F5
:10249800A4C0A6F00001A76BA86BA335A63701E37B
:1024A800A781A651B06FB051D8A409D0000EA26F71
:1024B800000EA36F000EA46F000EA56F1200170E7A
:1024C800A66FA2C0A7F0A3C0A8F0A4C0A9F0A6292F
:1024D800AA6F04D0D890A933A833A733AA2FFAD764
:1024E8000001A751AB6FA38FFF0EA217FF0EA31712
:1024F800000EA417A251AC6FA351AD6FA451AE6FDB
:10250800AF6B8E0EB05FB0AF16D0B051800A8F0F90
:10251800D8B009D0000EA26F000EA36F000EA46FF2
:10252800000EA56F1200D890AF33AE33AD33AC3385
:10253800B03FF9D715D0170EB0650FD0000EA26FB7
:10254800000EA36F000EA46F000EA56F1200D890A6
:10255800AC37AD37AE37AF37B007B051D8A4F7D7DF
:10256800AB51D8B408D0AF1FAE1FAD1FAC6D000E75
:10257800AD23AE23AF23ACC0A2F0ADC0A3F0AEC074
:10258800A4F0AFC0A5F0120082C03DF03E6A3F6AD9
:10259800000181353D3601E33E803D50866F86510E
:1025A800D8A407D0000E806F000E816F000E826FD6
:1025B800120085C03DF03E6A3F6A84353D3601E32E
:1025C8003E803D508B6F8B51D8A407D0000E806F92
:1025D800000E816F000E826F12008B517B0F8627D1
:1025E80082C08BF085518B1B800E8B17818F848F57
:1025F800FF0E8317FF0E8417000E8517000E876FD6
:10260800000E886F000E896F070E8A6F80A106D0B2
:10261800835187278451882385518923D890823311
:1026280081338033D8908337843785378A2FEED724
:10263800090E8A6F80A106D0835187278451882389
:1026480085518923D890823381338033D890893358
:10265800883387338A2FEED787C029F088C02AF0BD
:1026680089C02BF086C02CF08BC02DF070EC14F0D4
:1026780029C080F02AC081F02BC082F012008EC0E1
:1026880092F00001936B946B8D35923701E393813F
:102698009251996F9951D8A407D0000E8C6F000EF3
:1026A8008D6F000E8E6F120091C092F0936B946B39
:1026B8009035923701E3938192519A6F9A51D8A439
:1026C80007D0000E8C6F000E8D6F000E8E6F1200FB
:1026D800000E966F000E976F000E986F9A51890F33
:1026E800995F8EC09AF091519A1B800E9A178D8F20
:1026F800FF0E8C17FF0E8D17000E8E17908FFF0E92
:102708008F17FF0E9017000E9117180E956FD8901F
:102718009637973798378F518C5D90518D599151D5
:102728008E59D8A007D08F518C5F90518D5B9151F5
:102738008E5B9681D8908C378D378E37952FE7D75B
:1027480096C029F097C02AF098C02BF099C02CF0B9
:102758009AC02DF070EC14F029C08CF02AC08DF0CE
:102768002BC08EF012000600FACF17F0FBCF18F03E
:10277800E9CF19F0EACF1AF0E1CF1BF0E2CF1CF055
:10278800D9CF1DF0DACF1EF0F3CF1FF0F4CF20F031
:10279800F6CF21F0F7CF22F0F8CF23F0F5CF24F0D1
:1027A80056C025F057C026F058C027F059C028F069
:1027B800F0A203D0C2EC16F012D0F2A203D072EC51
:1027C80018F00DD0A1A003D05EEC1AF008D0A1A299
:1027D80003D046EC1AF003D0F0B030EC17F028C064
:1027E80059F027C058F026C057F025C056F024C02D
:1027F800F5FF23C0F8FF22C0F7FF21C0F6FF20C075
:10280800F4FF1FC0F3FF1EC0DAFF1DC0D9FF1CC0B4
:10281800E2FF1BC0E1FF1AC0EAFF19C0E9FF18C0B8
:10282800FBFF17C0FAFF569211005AEC1AF000018C
:10283800E46F4D0EE419D8A447D0000E836FC80E7C
:10284800846F420E856FECC080F0EDC081F0EEC061
:1028580082F0C8EC12F080C08CF081C08DF082C08C
:102868008EF0000E00018F6FA00E906F400E916FDA
:1028780043EC13F08CC0E1F08DC0E2F08EC0E3F0C1
:10288800000E0001B16F010EB26FF10EB36FFE0EB4
:10289800B46F4FC0B5F050C0B6F051C0B7F0E1C04A
:1028A800B8F0E2C0B9F0E3C0BAF04CC0BBF04DC01C
:1028B800BCF04EC0BDF009EC00F0000E2A6E010E0F
:1028C8002B6EC7EC19F01200530E0001E419D8A4BE
:1028D8001200000E556E12002C50D8B405D02950A5
:1028E8002A102B10D8A40CD0000E296E000E2A6EC8
:1028F800000E2B6E12002C2AD8902B322A32293245
:10290800000E29142E6E000E2A142F6EFE0E2B14A4
:10291800306E2E502F103010D8B40CD0ECD72C2A93
:10292800010E2926000E2A22000E2B22D8902B32C7
:102938002A322932000E29142E6E000E2A142F6E08
:10294800FF0E2B14306E2E502F103010D8B406D036
:10295800E6D72C06D89029362A362B362ABE03D03D
:10296800020E2C60F6D72CA02A9ED8902C322C5020
:102978002B122D50D8A42B8E29C029F02AC02AF05A
:102988002BC02BF012000450D8B405D0015002100F
:102998000310D8A40CD0000E016E000E026E000EBB
:1029A800036E1200042AD890033202320132000E5C
:1029B8000114066E000E0214076EFE0E0314086E54
:1029C800065007100810D8B40CD0ECD7042A010E12
:1029D8000126000E0222000E0322D8900332023292
:1029E8000132000E0114066E000E0214076EFF0E6F
:1029F8000314086E065007100810D8B406D0E6D79E
:102A08000406D89001360236033602BE03D0020E01
:102A18000460F6D704A0029ED89004320450031232
:102A28000550D8A4038E01C001F002C002F003C013
:102A380003F01200020EFEEC18F029C03DF02AC087
:102A48003EF01BEC19F03DC0F9F03EC0FAF03FC073
:102A5800FBF0010E336E010EDDEC18F0000E0001E4
:102A6800836FFA0E846F430E856FF9C080F0FAC049
:102A780081F0FBC082F0C8EC12F080C08CF081C0FD
:102A88008DF082C08EF0C00E00018F6F7F0E906FA8
:102A9800440E916F43EC13F08CC0E1F08DC0E2F06E
:102AA8008EC0E3F0000E0001B16F010EB26F5F0E31
:102AB800B36FFF0EB46FE1C0B5F0E2C0B6F0E3C08B
:102AC800B7F009EC00F0000E376E010E386ED9EC45
:102AD80019F01200C00E0001836F7F0E846F440E40
:102AE800856FB1C080F0B2C081F0B3C082F0C8EC8D
:102AF80012F080C08CF081C08DF082C08EF0000E84
:102B080000018F6FC80E906F420E916F43EC13F067
:102B18008CC0B4F08DC0B5F08EC0B6F0000E0001C8
:102B2800996F000E9A6F3F0E9B6FB4C096F0B5C0B8
:102B380097F0B6C098F072EC0FF096C0A2F097C06C
:102B4800A3F098C0A4F04CEC12F0A2C0B7F0A3C058
:102B5800B8F00001B8BF07D0040EB85DD8A003D004
:102B6800030EB86FB769B7C029F0B8C02AF04EECA9
:102B780019F012000001A4AF16D0A2C0A8F0A3C09B
:102B8800A9F0A4C0AAF0A81FA91FAA1FA82B000E6D
:102B9800A923AA23000EA825A26F000EA921A36FBE
:102BA800800EAA21A46FA7AF16D0A5C0A8F0A6C012
:102BB800A9F0A7C0AAF0A81FA91FAA1FA82B000E3A
:102BC800A923AA23000EA825A56F000EA921A66F88
:102BD800800EAA21A76F000EA21B000EA31B800E59
:102BE800A41B000EA51B000EA61B800EA71BA5513B
:102BF800A25DA651A359A751A459D8B002D0D89024
:102C08001200D8801200000E346E32AE06D0316C3D
:102C1800321ED8B0322A010E346E30AE06D02F6C78
:102C2800301ED8B0302A010E341A000E366E000E4F
:102C3800356E31503210D8B41CD0010E336E04D02A
:102C4800D89031363236332A32AEFAD7D890353664
:102C5800363631502F5C32503058D8A005D031501C
:102C68002F5E3250305A3580D89032323132332E7E
:102C7800EDD73450D8B404D0356C361ED8B0362AC7
:102C880035C02FF036C030F01200000E316E000E45
:102C9800326E000E336E000E346E2D502E102F1033
:102CA8003010D8B42AD0010E356E06D0D8902D3603
:102CB8002E362F363036352A30AEF8D7D890313602
:102CC8003236333634362D50295C2E502A582F5040
:102CD8002B5830502C58D8A009D02D50295E2E5092
:102CE8002A5A2F502B5A30502C5A3180D8903032D3
:102CF8002F322E322D32352EE1D731C029F032C095
:102D08002AF033C02BF034C02CF01200000E2E6EC7
:102D18002AAE06D0296C2A1ED8B02A2A010E2E6E99
:102D28002CAE04D02B6C2C1ED8B02C2A2B502C1077
:102D3800D8B418D0010E2D6E04D0D8902B362C366E
:102D48002D2A2CAEFAD72B50295C2C502A58D8A003
:102D580004D02B50295E2C502A5AD8902C322B3272
:102D68002D2EF1D72E50D8B404D0296C2A1ED8B0F5
:102D78002A2A29C029F02AC02AF01200020E166E4B
:102D8800450E156EAA0EE82EFED7152EFCD7162E68
:102D9800FAD7F092030E5518D8A40CD0484A492AFD
:102DA800040E48184910D8A41200000E496E030EEC
:102DB800486E12005504D8B404D0020E5518D8A491
:102DC800120045C009F046C00AF047C00BF0000EDB
:102DD8000C6EA00E0D6E400E0E6E49EC10F009C080
:102DE80045F00AC046F00BC047F012000001A16F81
:102DF8000001A151FEEC18F029C0A2F02AC0A3F0EE
:102E0800A2C037F0A3C038F0000E3A6E050E396E36
:102E18007CEC19F037C03DF038C03EF01BEC19F0DF
:102E28003DC08CF03EC08DF03FC08EF0C00E00015A
:102E38008F6F7F0E906F440E916F43EC13F08CC030
:102E48009EF08DC09FF08EC0A0F09EC09BF09FC0EA
:102E58009CF0A0C09DF01200020E166E450E156E75
:102E6800AA0EE82EFED7152EFCD7162EFAD7F0900C
:102E7800030E5518D8A40AD04806D8A0490649AE6A
:102E88001200000E496E000E486E12005504D8B4A8
:102E980004D0020E5518D8A4120045C009F046C047
:102EA8000AF047C00BF0000E0C6EA00E0D6EC00E9F
:102EB8000E6E49EC10F009C045F00AC046F00BC090
:102EC80047F012003A503B103C103D10D8B424D0C3
:102ED800010E3E6E06D0D8903A363B363C363D362B
:102EE8003E2A3DAEF8D73A50365C3B5037583C50F6
:102EF80038583D503958D8A008D03A50365E3B5023
:102F0800375A3C50385A3D50395AD8903D323C32A5
:102F18003B323A323E2EE7D736C036F037C037F06C
:102F280038C038F039C039F0120084948492000E09
:102F38002A6E190E296EA2EC19F0010E336E030EDB
:102F4800336401D00BD0030EFCEC19F0000E2A6E8E
:102F5800060E296EA2EC19F0332AF1D7020EFCEC0A
:102F680019F0000E336E030E336401D01200335093
:102F7800010D410EF324D96E000EF420DA6EDF50F5
:102F8800316E000E98EC18F0332AEDD78E0E396E9C
:102F980006D0D8903432333232323132392A000EE8
:102FA8003114356E000E3214366E000E3314376E3F
:102FB800FF0E3414386E3550361037103810D8A438
:102FC800E8D731C029F032C02AF033C02BF039C01D
:102FD8002CF0000E2D6E70EC14F029C031F02AC0D0
:102FE80032F02BC033F01200366E1ED0010E316E57
:102FF800000E98EC18F0000E2A6E020E296EA2EC54
:1030080019F01200020E336E010EDDEC18F01200FA
:10301800100E316E000E98EC18F0120036C031F028
:10302800010E98EC18F012003650080AD8B4F0D700
:10303800020AD8B4E7D7060AD8B4D8D7EFD7A80E6B
:10304800F66E340EF76E000EF86E00EE41F010EEDC
:103058000BF00900F5CFEEFFE550E150FAE101EE83
:1030680000F0200EEE6AE806FDE100EEE9F0160E2B
:10307800EE6AE806FDE100EE4CF00A0EEE6AE8069C
:10308800FDE156905692000EF86E0001D6EF0BF057
:10309800020E2A6E450E296EAA0EE82EFED7292E9C
:1030A800FCD72A2EFAD7F2924A4A4B2A4A504B109A
:1030B800D8A403D0010E556E12004A044B10D8A4B0
:1030C80003D0020E556E1200020E4A184B10D8A4F7
:1030D8001200030E556E4A684B681200020E026E0B
:1030E800450E016EAA0EE82EFED7012EFCD7022E41
:1030F800FAD7F2924A4A4B2A4A504B10D8A403D026
:10310800010E556E12004A044B10D8A403D0020ECB
:10311800556E1200020E4A184B10D8A41200030E66
:10312800556E4A684B681200326E32B002D08494F1
:1031380001D08484010E65EC19F0010E65EC19F0DC
:10314800849231380F0BFCEC19F031500F0BFCEC6A
:1031580019F03250D8B405D0320E0400E82EFDD74D
:103168001200000E2A6E020E296EA2EC19F012004F
:103178000001A551A611A711D8B406D0000EA51BB1
:10318800000EA61B800EA71BA2C096F0A3C097F046
:10319800A4C098F0A5C099F0A6C09AF0A7C09BF06B
:1031A80072EC0FF096C0A2F097C0A3F098C0A4F0FC
:1031B8001200346E09D0800E05D0C00E03D0900ED8
:1031C80001D0D00E356E0DD03350010AD8B4F3D7E4
:1031D800030AD8B4F2D7010AD8B4F1D7070AD8B489
:1031E800F0D73404352635508009316E000E98EC3E
:1031F80018F012002D6E2DC02BF02B462B46C25016
:103208002B18C30B2B18C26EC282C2B2FED7C35092
:10321800C4CF2BF02C6A2BC02CF02B6A2B102E6EEF
:103228002C502F6E2EC029F02FC02AF01200000E4D
:10323800406E3EAE06D03D6C3E1ED8B03E2A010E12
:10324800406E3DC029F03EC02AF02B6A8E0E2C6ECF
:1032580040C02DF070EC14F029C03DF02AC03EF0BB
:103268002BC03FF01200000EC26E0C0EC16E000E95
:103278008D6E8DCF8CFF8CCF8BFF8BCF8AFF8ACF43
:1032880089FF92689368800E946E000E956E000E0A
:10329800966E120029C02BF02AC02CF0D8902C3240
:1032A8002B32D8902C322B322B50BE6E29C02BF0EB
:1032B800030E2B162B3ABD502B18CF0B2B18BD6EB7
:1032C80012002C6E000E2E6E000E2D6E03D0040020
:1032D8002D4A2E2A2C50296E2A6A2D50295C2A50F4
:1032E800800A2B6E2E50800A2B58D8A01200EFD7D8
:1032F80037503902F3CF3BF0F4CF3CF037503A0265
:10330800F3503C2638503902F3503C263BC037F086
:103318003CC038F012000001805181118211D8B4EC
:1033280006D0000E801B000E811B800E821B80C001
:1033380080F081C081F082C082F01200000E2C6EF5
:10334800000E2B6E07D0C80E04000400E82EFCD730
:103358002B4A2C2A2B50295C2C502A58D8A0120012
:10336800F2D7B896000EAC6E190EAF6E000EB06EA6
:10337800AC84AC8A000EAB6EAB88AB8EAECF29F0B6
:10338800AECF29F0120009D02AC0D9FF2BC0DAFF2E
:10339800DF5036EC1AF02A4A2B2A2AC0D9FF2BC054
:1033A800DAFFDF50D8B41200EFD709D037C0D9FF01
:1033B80038C0DAFFDF50F8EC17F0374A382A37C040
:1033C800D9FF38C0DAFFDF50D8B41200EFD7090EA2
:1033D800BA6E000EB16EB192B150CF0B2009B16E2A
:1033E800B19CB186000EB36E000EB26EB1801200B1
:1033F800306E30C02FF02F3A83502F180F0B2F1834
:10340800836E010E65EC19F08482040000F084924A
:103418001200510EF16E180EF06ED00EF26E000E04
:10342800D06E090EA06E000EA16E000EA26E1200E4
:103438002B6E000E2A6E3A0E2B6005D02F0E2B64D1
:1034480002D0010E2A6E2AC029F02930120037EC6A
:1034580019F00DEC1AF099EC17F04EEC1AF0EBECB1
:1034680019F01200296E01D00400ACA2FDD729C0C2
:10347800ADFF1200CB68000ECA6E0C0EBD6ECA847A
:1034880094941200A192828A8372000EB36E000E89
:10349800B26E1200000EC26EC280890EC06E12009B
:0B34A800280C0106007042FFFFFFFF30
:1034B400AECF29F029501200A190829A8374120091
:10FE7A0000010000000A00000064000000E803001E
:10FE8A000010270000A086010040420F00809698CB
:10FE9A000000E1F50500CA9A3B00803F00204100BE
:10FEAA00C842007A44401C4650C3472474499718F4
:10FEBA004BBCBE4C6B6E4E03155079AD60F3497165
:10FECA0000803FCDCC3DD7233C12833AB7D138C608
:10FEDA002737388635C0D633CC2B32708930E7DBEA
:10FEEA002EE53C1E42A20D0A52543A25342E3166A2
:10FEFA00204F543A25342E31662053503A25342E59
:10FF0A003166004F543A2025342E31664320433A55
:10FF1A002025322E31662525004F543A2025342ECD
:10FF2A0031664320483A2025322E31662525004D78
:10FF3A00443A204175746F2048656174202020205E
:10FF4A002020004F543A2025342E31664320523A5D
:10FF5A0020302E300052543A2025342E3166432068
:10FF6A002020204820430053503A2025342E316661
:10FF7A0043202020204E204E0053503A2025342E74
:10FF8A003166432020202059204E0053503A202524
:10FF9A00342E316643202020204E20590053503AF7
:10FFAA002025342E31664320202020592059004D27
:10FFBA00443A4175746F2048432048533A202564D7
:10FFCA00004D443A4F464620202020202020202061
:10FFDA0020004D443A436F6F6C20202020202020BF
:10FFEA002020004D443A48656174202020202020BA
:05FFFA002020200000A2
:020000040020DA
:08000000FFFFFFFFFFFFFFFF00
:020000040030CA
:0E000000FF011F1FFF8385FF0FC00FE00F40A1
:00000001FF
